:100000000C942A000C9447000C9447000C94470071
:100010000C9447000C9447000C9447000C94470044
:100020000C9447000C9447000C9447000C94470034
:100030000C9447000C9447000C9447000C94470024
:100040000C9447000C9447000C9447000C94470014
:100050000C94470011241FBECFE5D8E0DEBFCDBF12
:1000600010E0A0E6B0E0E2E2FBE002C005900D92F5
:10007000A23FB107D9F720E0A2EFB0E001C01D9286
:10008000AC3FB207E1F70E9468050C948F050C9411
:10009000000087B1806487B987B18F7787B987B14E
:1000A0008F7D87B986B18F7D86B986B1877F86B906
:1000B00086B1816086B986B1826086B986B1846076
:1000C00086B986B1806886B908958032B0F461152A
:1000D000710599F097B1907E97B997B1892B87B93F
:1000E00086B1806486B9349BFECF86B1806186B9C3
:1000F00084B195B1FB019183808308950F931F9381
:10010000CF93DF9300D0CDB7DEB78B01BE016F5F19
:100110007F4F0E94650029813A81A8E8B3E10E94DF
:100120008005DC01CB01072E7AE0B695A79597955F
:1001300087957A95D1F7702DF801918380830F9080
:100140000F90DF91CF911F910F910895843008F0A7
:1001500072C0683008F06FC0423008F06CC0813067
:1001600001F130F08230B1F1833009F44CC00895D0
:10017000413059F42AB381E090E002C0880F991F02
:100180006A95E2F7822B8ABB08952AB381E090E05A
:1001900002C0880F991F6A95E2F7809582238ABB77
:1001A0000895413059F427B381E090E002C0880FF0
:1001B000991F6A95E2F7822B87BB089527B381E0E8
:1001C00090E002C0880F991F6A95E2F7809582231C
:1001D00087BB0895413059F424B381E090E002C018
:1001E000880F991F6A95E2F7822B84BB089524B388
:1001F00081E090E002C0880F991F6A95E2F7809530
:10020000822384BB0895413059F421B381E090E00A
:1002100002C0880F991F6A95E2F7822B81BB08956F
:1002200021B381E090E002C0880F991F6A95E2F740
:100230008095822381BB0895843008F072C06830B5
:1002400008F06FC0423008F06CC0813001F130F02E
:100250008230B1F1833009F44CC00895413059F433
:100260002BB381E090E002C0880F991F6A95E2F7F6
:10027000822B8BBB08952BB381E090E002C0880FE6
:10028000991F6A95E2F7809582238BBB08954130D0
:1002900059F428B381E090E002C0880F991F6A9555
:1002A000E2F7822B88BB089528B381E090E002C07A
:1002B000880F991F6A95E2F78095822388BB08957D
:1002C000413059F425B381E090E002C0880F991FB6
:1002D0006A95E2F7822B85BB089525B381E090E013
:1002E00002C0880F991F6A95E2F78095822385BB2B
:1002F0000895413059F422B381E090E002C0880FA4
:10030000991F6A95E2F7822B82BB089522B381E0A0
:1003100090E002C0880F991F6A95E2F780958223CA
:1003200082BB089540E062E080E00E94A60040E0C9
:1003300064E080E00E94A60040E065E080E00E946A
:10034000A60040E066E080E00E94A60040E067E092
:1003500080E00E94A600089566EF70E082E00E94AF
:100360007E0064EF70E084E00E947E006AEF70E03F
:1003700085E00E947E0068EF70E086E00E947E00CB
:1003800062EF70E087E00E947E0008958091FA009D
:100390009091FB008D3523E0920708F12091F40045
:1003A0003091F500243D3340D0F42091F20030919B
:1003B000F300243D334098F42091F8003091F90087
:1003C000273B334060F02091F6003091F7002A3A45
:1003D000314028F080E690E00E94480508958D3570
:1003E00023E0920708F12091F4003091F500243DBC
:1003F0003340D0F42091F2003091F300243D33409B
:1004000098F42091F8003091F900273B334060F0D8
:100410002091F6003091F700293A314028F48EE619
:1004200090E00E94480508958D3523E0920708F179
:100430002091F4003091F500253D3340D0F020911B
:10044000F2003091F300253D334098F02091F80000
:100450003091F900273B334060F02091F600309155
:10046000F700293A314028F48FE790E00E944805D0
:1004700008958C3523E0920708F52091F40030911F
:10048000F500243D3340D0F42091F2003091F30088
:10049000243D334098F42091F8003091F900263B38
:1004A000334060F42091F6003091F7002A3A314051
:1004B00028F087E890E00E94480508958C3523E0F5
:1004C000920708F52091F4003091F500243D334067
:1004D000D0F42091F2003091F300253D334098F0A4
:1004E0002091F8003091F900273B334060F02091D3
:1004F000F6003091F700293A314028F480E990E085
:100500000E94480508958C3523E0920708F5209154
:10051000F4003091F500243D3340D0F42091F200F6
:100520003091F300243D334098F42091F80030914D
:10053000F900273B334060F02091F6003091F7003E
:10054000293A314028F481EA90E00E944805089554
:100550008D3523E0920708F12091F4003091F500E9
:10056000243D3340D0F42091F2003091F300253D3A
:10057000334098F02091F8003091F900273B334048
:1005800060F02091F6003091F7002A3A314028F0CF
:1005900087EA90E00E94480508958C3523E0920791
:1005A00008F52091F4003091F500243D3340D0F45B
:1005B0002091F2003091F300243D334098F42091D3
:1005C000F8003091F900263B334060F42091F600AA
:1005D0003091F700293A314028F487EB90E00E94EF
:1005E000480508958D3523E0920708F12091F40025
:1005F0003091F500253D3340D0F02091F20030914C
:10060000F300243D334098F42091F8003091F90034
:10061000273B334060F02091F6003091F700293AF3
:10062000314028F48DEB90E00E94480508958C3508
:1006300023E0920708F52091F4003091F500243D65
:100640003340D0F42091F2003091F300243D334048
:1006500098F42091F8003091F900273B334060F086
:100660002091F6003091F7002A3A314028F083ECCF
:1006700090E00E94480508958D3523E0920708F127
:100680002091F4003091F500243D3340D0F42091C6
:10069000F2003091F300243D334098F42091F800AB
:1006A0003091F900263B334060F42091F600309100
:1006B000F7002A3A314028F08BEC90E00E94480580
:1006C00008958D3523E0920708F12091F4003091D0
:1006D000F500253D3340D0F02091F2003091F30039
:1006E000253D334098F02091F8003091F900263BE9
:1006F000334060F42091F6003091F700293A314000
:1007000028F481ED90E00E94480508958D3523E09E
:10071000920708F12091F4003091F500243D334018
:10072000D0F42091F2003091F300243D334098F44E
:100730002091F8003091F900263B334060F420917D
:10074000F6003091F700293A314028F489ED90E025
:100750000E94480508958C3523E0920708F5209102
:10076000F4003091F500243D3340D0F42091F200A4
:100770003091F300253D334098F02091F8003091FE
:10078000F900273B334060F02091F6003091F700EC
:100790002A3A314028F08DED90E00E9448050895F6
:1007A0008D35934008F18091F4009091F500853DDE
:1007B0009340D0F08091F2009091F300843D9340FB
:1007C00098F48091F8009091F900873B934060F095
:1007D0008091F6009091F7008A3A914028F081EEDE
:1007E00090E00E94480508958AEE90E00E94480536
:1007F0004FE78FEA92E0415080409040E1F700C01F
:1008000000008EE20E9412052FE74FEA82E021509D
:1008100040408040E1F700C000008EE20E941205D7
:100820009FE72FEA42E0915020404040E1F700C0AE
:1008300000008EE20E9412058FE79FEA22E08150BD
:1008400090402040E1F700C000008EE20E941205B7
:100850004FEF86E791E0415080409040E1F700C0C3
:1008600000008EE20E9412052FEF46E781E0215042
:1008700040408040E1F700C000008EE20E94120577
:100880000895CF93C82F80FF06C041E063E082E067
:100890000E941C0105C040E063E082E00E941C0150
:1008A000C1FF06C041E064E082E00E941C0105C077
:1008B00040E064E082E00E941C01C2FF06C041E00B
:1008C00065E082E00E941C0105C040E065E082E036
:1008D0000E941C01C3FF06C041E066E082E00E9466
:1008E0001C0105C040E066E082E00E941C01CF913F
:1008F000089541E063E082E00E94A60041E064E0E8
:1009000082E00E94A60041E065E082E00E94A6002D
:1009100041E066E082E00E94A60041E061E081E003
:100920000E94A60041E062E081E00E94A60041E052
:1009300063E081E00E94A6000895CF93C82F40E0B5
:1009400061E081E00E941C0140E062E081E00E94E1
:100950001C018C2F82958F700E94410441E063E05E
:1009600081E00E941C018FE99FE00197F1F700C030
:10097000000040E063E081E00E941C018C2F0E9497
:10098000410441E063E081E00E941C018FE99FE0A7
:100990000197F1F700C0000040E063E081E00E94B1
:1009A0001C01CF9108952FE785EB91E02150804005
:1009B0009040E1F700C0000040E061E081E00E946B
:1009C0001C0140E062E081E00E941C0182E00E9484
:1009D000410441E063E081E00E941C018FE99FE057
:1009E0000197F1F700C0000040E063E081E00E9461
:1009F0001C0188E20E949D0490EF9A95F1F78FE028
:100A00000E949D0420EF2A95F1F781E00E949D0449
:100A10008FE39FE10197F1F700C0000086E00E949C
:100A20009D040895CF93C82F41E061E081E00E94CA
:100A30001C0140E062E081E00E941C018C2F829545
:100A40008F700E94410441E063E081E00E941C013C
:100A50008FE99FE00197F1F700C0000040E063E0FC
:100A600081E00E941C018C2F0E94410441E063E060
:100A700081E00E941C018FE99FE00197F1F700C01F
:100A8000000040E063E081E00E941C01CF910895E6
:100A90000F931F93CF93009729F40CC00E94120567
:100AA000CF5F02C08C01C0E0F801EC0FF11D808126
:100AB0008111F4CFCF911F910F91089581E00E9491
:100AC0009D048FE39FE10197F1F700C000000895B6
:100AD0000E9479040E9492010E9449000E94D3045E
:100AE0000E94AC010E94C6012FEF87E893E12150DC
:100AF00080409040E1F700C000000E945E05F0CF0A
:100B0000A29FB001B39FC001A39F700D811D11244E
:100B1000911DB29F700D811D1124911D0895F894AF
:020B2000FFCF05
:100B220049204C6F766520596F75203C330054681C
:100B32006174277320417765736F6D6520210048CA
:100B4200454C4C4F202100476F6F64204A6F620072
:100B520049276D205761746368696E6720596F7504
:100B620000596F7520210049205265616C6C792013
:100B72004C6F7665205500536F727279004C696B29
:100B820065200042726F746865720050686F6E650E
:100B9200005065726665637400456E640047756E49
:100BA200004661766F726974650052656164696EB0
:020BB2006700DA
:00000001FF
